:1000000082EF01F00000000000EF00F000000000AF
:0A0010000000000000000000F3D71C
:10001C00220E0C6E086A096A0A6A0B6A0C06D8B4BE
:10002C001FD0D8900B320A32093208320332023216
:10003C0001320032D8A0F2D70C06D8B409D0045043
:10004C0008260550092206500A2207500B22EAD72F
:10005C00045008260550092206500A2207500B228C
:02006C00120080
:10006E0020C019F021C01AF0000E1B6E1C6E010E7E
:04007E001D6E1200E1
:100082000134083609360450085E0550D8A0053CF4
:10009200095E003601360F0E0C6E01340836093641
:1000A200045000A006D0085E0550D8A0053C095EA9
:1000B20005D008260550D8B0053C09260036013681
:1000C2000C2EEBD700B006D0045008260550D8B04D
:0800D200053C092600001200A4
:1000DA001D5205E1010E206E000E216EC3DF19C00C
:1000EA0000F01AC001F01BC002F01CC003F06D0E34
:1000FA00046E4E0E056EC60E066E410E076E89DF41
:10010A00390E0024056E300E0120066E000E022004
:10011A00076E000E0320086E07C000F008C001F049
:10012A00000E08BEFF0E026E036EFF0E00167F0E53
:10013A000116000E0216031600C019F001C01AF0CB
:0A014A0002C01BF003C01CF01200FD
:100154000450000A08E10550000A05E1FF0E006E94
:100164007F0E016E57D00D6A096A086A01500010AB
:10017400D8B4000C015005180A6E0ABE0D1E0B6A95
:1001840005AE05D0041E051E042AD8B4052A01AE06
:1001940005D0001E011E002AD8B4012A0150051002
:1001A4000A6E0ABE10D06BDF0BB020D00DAE000C6F
:1001B400001E011E002AD8B4012A081E091E082A9E
:1001C400D8B4092A000C05AE0DD001BE07D00150E9
:1001D400096E0050086E016A006AE8D7016A006A75
:1001E400002A000C011E001E0B2ADDD7082AD8B4F1
:1001F400092A0450085CD8A4D9D70550095CD8A4AE
:10020400D5D7096A086A002AD8B4012A01AECED724
:060214000000FF0C1200C7
:10021A00000E1F1802E1010E1E1802E1818227D08A
:10022A00000E1F1802E1020E1E1802E181841FD07F
:10023A00000E1F1802E1030E1E1802E1818617D074
:10024A00000E1F1802E1040E1E1802E181880FD069
:10025A00000E1F1802E1050E1E1802E1818A07D05E
:10026A00000E1F1802E1060E1E18D8B4818C120067
:10027A000900F5CFE6FF0006FBE10106F9E11200ED
:10028A0027DF060E046E000E056E5FDF08C000F061
:0A029A0009C001F0004A012A120019
:1002A400000E1F1802E1010E1E1802E1838227D0FE
:1002B400000E1F1802E1020E1E1802E183841FD0F3
:1002C400000E1F1802E1030E1E1802E1838617D0E8
:1002D400000E1F1802E1040E1E1802E183880FD0DD
:1002E400000E1F1802E1050E1E1802E1838A07D0D2
:1002F400000E1F1802E1060E1E18D8B4838C1200DB
:10030400060E156E166A060E176E186A010E936EA7
:10031400956AFD0E946E8282816A836A81B033D0BD
:10032400816A836A000E181802E1060E171808E1A4
:10033400000E161802E1060E151802E1829282825E
:1003440017C01EF018C01FF066DF15C01EF016C0DF
:100354001FF0A6DF0B0E0B6E260E0C6E5D0E0D6EDF
:100364000D2EFED70C2EFCD70B2EFAD70000000062
:100374008ADF00C017F001C018F085DF00C015F057
:0E03840001C016F0CBD7816A836AC8D7FFD7B5
:020000040030CA
:0D000100220F0EFF0080FF0FC00FE00F4028
:00000001FF
